{
  "_format": "hh-sol-artifact-1",
  "contractName": "WavePortal",
  "sourceName": "contracts/WavePortal.sol",
  "abi": [
    {
      "inputs": [],
      "stateMutability": "nonpayable",
      "type": "constructor"
    },
    {
      "inputs": [],
      "name": "getAllWavers",
      "outputs": [
        {
          "components": [
            {
              "internalType": "address",
              "name": "waver",
              "type": "address"
            },
            {
              "internalType": "uint256",
              "name": "timestamp",
              "type": "uint256"
            }
          ],
          "internalType": "struct WavePortal.Waver[]",
          "name": "",
          "type": "tuple[]"
        }
      ],
      "stateMutability": "view",
      "type": "function"
    },
    {
      "inputs": [],
      "name": "getTotalWaves",
      "outputs": [
        {
          "internalType": "uint256",
          "name": "",
          "type": "uint256"
        }
      ],
      "stateMutability": "view",
      "type": "function"
    },
    {
      "inputs": [],
      "name": "wave",
      "outputs": [],
      "stateMutability": "nonpayable",
      "type": "function"
    }
  ],
  "bytecode": "0x608060405234801561001057600080fd5b5061003c6040518060600160405280602681526020016109df6026913961004160201b6102dd1760201c565b6101bb565b6100dd816040516024016100559190610199565b6040516020818303038152906040527f41304fac000000000000000000000000000000000000000000000000000000007bffffffffffffffffffffffffffffffffffffffffffffffffffffffff19166020820180517bffffffffffffffffffffffffffffffffffffffffffffffffffffffff83818316178352505050506100e060201b60201c565b50565b60008151905060006a636f6e736f6c652e6c6f679050602083016000808483855afa5050505050565b600081519050919050565b600082825260208201905092915050565b60005b83811015610143578082015181840152602081019050610128565b60008484015250505050565b6000601f19601f8301169050919050565b600061016b82610109565b6101758185610114565b9350610185818560208601610125565b61018e8161014f565b840191505092915050565b600060208201905081810360008301526101b38184610160565b905092915050565b610815806101ca6000396000f3fe608060405234801561001057600080fd5b50600436106100415760003560e01c8063117c5564146100465780636fe15b44146100645780639a2cdc081461006e575b600080fd5b61004e61008c565b60405161005b919061060f565b60405180910390f35b61006c61018f565b005b610076610292565b6040516100839190610640565b60405180910390f35b60606100d26040518060400160405280600d81526020017f416c6c2077617665727320256400000000000000000000000000000000000000815250600180549050610376565b6001805480602002602001604051908101604052809291908181526020016000905b8282101561018657838290600052602060002090600202016040518060400160405290816000820160009054906101000a900473ffffffffffffffffffffffffffffffffffffffff1673ffffffffffffffffffffffffffffffffffffffff1673ffffffffffffffffffffffffffffffffffffffff168152602001600182015481525050815260200190600101906100f4565b50505050905090565b60016000808282546101a1919061068a565b925050819055506101e76040518060400160405280600d81526020017f257320686173207761766564210000000000000000000000000000000000000081525033610412565b600160405180604001604052803373ffffffffffffffffffffffffffffffffffffffff16815260200142815250908060018154018082558091505060019003906000526020600020906002020160009091909190915060008201518160000160006101000a81548173ffffffffffffffffffffffffffffffffffffffff021916908373ffffffffffffffffffffffffffffffffffffffff160217905550602082015181600101555050565b60006102d56040518060400160405280600e81526020017f546f74616c207761766573202564000000000000000000000000000000000000815250600054610376565b600054905090565b610373816040516024016102f1919061074e565b6040516020818303038152906040527f41304fac000000000000000000000000000000000000000000000000000000007bffffffffffffffffffffffffffffffffffffffffffffffffffffffff19166020820180517bffffffffffffffffffffffffffffffffffffffffffffffffffffffff83818316178352505050506104ae565b50565b61040e828260405160240161038c929190610770565b6040516020818303038152906040527fb60e72cc000000000000000000000000000000000000000000000000000000007bffffffffffffffffffffffffffffffffffffffffffffffffffffffff19166020820180517bffffffffffffffffffffffffffffffffffffffffffffffffffffffff83818316178352505050506104ae565b5050565b6104aa82826040516024016104289291906107af565b6040516020818303038152906040527f319af333000000000000000000000000000000000000000000000000000000007bffffffffffffffffffffffffffffffffffffffffffffffffffffffff19166020820180517bffffffffffffffffffffffffffffffffffffffffffffffffffffffff83818316178352505050506104ae565b5050565b60008151905060006a636f6e736f6c652e6c6f679050602083016000808483855afa5050505050565b600081519050919050565b600082825260208201905092915050565b6000819050602082019050919050565b600073ffffffffffffffffffffffffffffffffffffffff82169050919050565b600061052e82610503565b9050919050565b61053e81610523565b82525050565b6000819050919050565b61055781610544565b82525050565b6040820160008201516105736000850182610535565b506020820151610586602085018261054e565b50505050565b6000610598838361055d565b60408301905092915050565b6000602082019050919050565b60006105bc826104d7565b6105c681856104e2565b93506105d1836104f3565b8060005b838110156106025781516105e9888261058c565b97506105f4836105a4565b9250506001810190506105d5565b5085935050505092915050565b6000602082019050818103600083015261062981846105b1565b905092915050565b61063a81610544565b82525050565b60006020820190506106556000830184610631565b92915050565b7f4e487b7100000000000000000000000000000000000000000000000000000000600052601160045260246000fd5b600061069582610544565b91506106a083610544565b92508282019050808211156106b8576106b761065b565b5b92915050565b600081519050919050565b600082825260208201905092915050565b60005b838110156106f85780820151818401526020810190506106dd565b60008484015250505050565b6000601f19601f8301169050919050565b6000610720826106be565b61072a81856106c9565b935061073a8185602086016106da565b61074381610704565b840191505092915050565b600060208201905081810360008301526107688184610715565b905092915050565b6000604082019050818103600083015261078a8185610715565b90506107996020830184610631565b9392505050565b6107a981610523565b82525050565b600060408201905081810360008301526107c98185610715565b90506107d860208301846107a0565b939250505056fea264697066735822122039c7653920477522c0c00b71f198d85ebe06d50ab642371577468897744b0c1464736f6c63430008110033596f2c204920616d20796f757220666972737420736d61727420636f6e7472616374203a2729",
  "linkReferences": {},
  "deployedLinkReferences": {}
}